:10000000FDC000002CC100002AC1000028C1000072
:1000100026C1000024C1000022C1000020C1000050
:100020001EC100001CC100001AC1000018C1000060
:1000300016C1000014C1000012C1000010C1000070
:100040000EC100000CC100000AC1000008C1000080
:1000500006C1000004C1000002C100000C94CF10D2
:10006000FEC000000C94570F0C948D0FF8C00000D8
:10007000F6C00000F4C00000F2C00000F0C00000B4
:10008000EEC00000ECC00000EAC00000E8C00000C4
:10009000E6C00000E4C00000E2C000000C944A1575
:1000A000DEC00000DCC00000DAC00000D8C00000E4
:1000B000D6C00000D4C00000D2C00000D0C00000F4
:1000C000CEC00000CCC00000CAC00000C8C0000004
:1000D000C6C00000C4C00000C2C00000C0C0000014
:1000E000BEC0000090169316821686168C16CA168D
:1000F00097169B16A116A516A916AF16B316B71616
:10010000CA16BD16C116C51600000A0B02090C0D51
:100110000E080703040100000000000000000000BA
:1001200000000000000000000000000000000000CF
:10013000000000001211100000000000000000008C
:1001400000000000000000000000000000000102AC
:1001500010202008081020401020408002010201D9
:100160000804020101020408102040808040201091
:1001700008040201800402018040201008040201EA
:100180000804020101020408102040800102040852
:10019000102040800505050507050808080802022B
:1001A00002020A0A08080404040401010101010111
:1001B00001010303030303030303040707070C0CF4
:1001C0000C0C0C0C0C0C02020202060606060606BB
:1001D00006060B0B0B0B0B0B0B0B00002200250074
:1001E00028002B002E003100340002010000050120
:1001F00008010B017F0DBF0F6314E40D11241FBE16
:10020000CFEFD1E2DEBFCDBF00E00CBF15E0A0E034
:10021000B2E0E2EDF6E300E00BBF02C007900D9202
:10022000AA35B107D9F72BE0AAE5B5E001C01D92C8
:10023000AA3CB207E1F711E0CAEFD1E000E006C046
:1002400022970109FE010BBF0E945417C43FD1073A
:1002500080E00807A9F70E94C3100C94581BD0CE69
:10026000CF92DF92EF92FF920F931F93CF93DF9382
:100270008C01EB01888190E0A0E0B0E0F80182837E
:100280009383A483B5832981922B82839383A48350
:10029000B5832A81A22B82839383A483B5832B8188
:1002A000B22B82839383A483B5838C8190E0A0E0FA
:1002B000B0E086839783A087B1872D81922B8683B8
:1002C0009783A087B1872E81A22B86839783A087EF
:1002D000B1872F81B22B86839783A087B18748850A
:1002E00050E060E070E042875387648775878985B6
:1002F000582B42875387648775878A85682B428786
:100300005387648775878B85782B428753876487EB
:1003100075878C859D85AE85BF859E01205F3F4F8B
:10032000AC01BD01405F5F4F6F4F7F4F6901CC1A39
:10033000DD0AE12CF12CC416D506E606F70650F4CA
:10034000F901D1909F017F01F2E0EF1AF108F70166
:10035000D082ECCF9E01280F391FF90117862F9606
:10036000F801D787C6874096DF91CF911F910F91F3
:10037000FF90EF90DF90CF90089586E092E008958F
:1003800086E192E00895AF92BF92CF92DF92EF9212
:10039000FF921F93CF93DF939C01FB018081D901D2
:1003A00012968C9381819281A381B4815B01C5E017
:1003B000AC0EB11CAC01BD014B5F5F4F6F4F7F4F67
:1003C0006501CE1ADF0AE12CF12CC416D506E6062B
:1003D000F70650F4E501D9905E017E01D2E0ED1AF6
:1003E000F108E701D882ECCFEF01C80FD91F1C82BA
:1003F000AF014C5F5F4FF901548343834D814583C7
:100400000696DF91CF911F91FF90EF90DF90CF90F4
:10041000BF90AF90089587E392E0089585E592E05C
:10042000089586E792E0089583E992E00895FC013B
:10043000DB0182818C93838111968C931197848147
:1004400012968C931297858113968C9313978681BD
:1004500014968C931497878115968C9315978085A5
:1004600016968C931697818517968C9388E090E06A
:100470000895FC01DB014C9150E060E070E04283A4
:1004800053836483758311968C911197582B428303
:1004900053836483758312968C911297682B4283E1
:1004A00053836483758313968C911397782B4283BF
:1004B00053836483758314964C91149750E060E0E5
:1004C00070E0468357836087718715968C911597E6
:1004D000582B468357836087718716968C911697A1
:1004E000682B468357836087718717968C91782B8A
:1004F000468357836087718788E090E0089584EB96
:1005000092E0089582EC92E008956F927F928F922C
:100510009F92AF92BF92CF92DF92EF92FF920F9392
:100520001F93CF93DF93FC01DB018C9190E09383C9
:10053000828311962C911197922B9383828312962A
:100540004D915D916D917C9115975D0186E0A80EAE
:10055000B11C8A019B010A5F1F4F2F4F3F4F65015E
:10056000CA1ADB0AE12CF12CC016D106E206F3060A
:1005700040F4E501F9905E01CE010297EC01F882AA
:10058000EECFED01C40FD51F1D82CD0105969583D9
:100590008483ED01C40FD51FCE80DF80E884F98409
:1005A000465F5F4F3D01640E751E8A01222717FDCD
:1005B0002095322F0C0D1D1D2E1D3F1D43018A1A43
:1005C0009B0AA12CB12C80169106A206B30640F41A
:1005D000E30169913E01CE010297EC016883EECF01
:1005E000C40ED51E9D012C0D3D1DC9010197EC01C6
:1005F0001882415051094A0F5B1F57834683E90116
:10060000088119812A813B81D4E0CD0ED11C3D01A6
:100610006C0C7D1CA601662757FD6095762F400F58
:10062000511F621F731F43018A1A9B0AA12CB12C10
:1006300084169506A606B70640F4E301F9903E013C
:10064000CE010297EC01F882EECF0C0D1D1D9D012D
:10065000200F311FC9010197EC011882D1E0CD1A9A
:10066000D108CA0EDB1ED186C086D90111968C91A5
:10067000119712964C91129750E060E070E0BA0129
:1006800055274427582B8C91482B13968C91782B07
:100690004287538764877587C8010496DF91CF919D
:1006A0001F910F91FF90EF90DF90CF90BF90AF9090
:1006B0009F908F907F906F90089583EE92E00895C1
:1006C0008CEF92E00895AF92BF92CF92DF92EF92BB
:1006D000FF921F93CF93DF939C01FB018081D9018F
:1006E00012968C9381819281A381B4815B01C5E0D4
:1006F000AC0EB11CAC01BD014B5F5F4F6F4F7F4F24
:100700006501CE1ADF0AE12CF12CC416D506E606E7
:10071000F70650F4E501D9905E017E01D2E0ED1AB2
:10072000F108E701D882ECCFEF01C80FD91F1C8276
:100730003496E901FC83EB830596DF91CF911F91FD
:10074000FF90EF90DF90CF90BF90AF9008958DE134
:1007500093E0089580E393E0089585E494E008959C
:1007600081E593E00895FB01DC0112964C9112970C
:1007700013963C91139714962C91149715968C917F
:10078000408331832283838384E090E00895FB01DA
:100790002181428150E060E070E0BA015527442792
:1007A000522B2081422B2381722BFC0142835383E5
:1007B0006483758384E090E0089582E793E0089570
:1007C00083E893E008958E579B4FFC018081089544
:1007D0000F931F93CF93DF93DC01FB0112968C9153
:1007E0001297808313968C911397818314968C9122
:1007F0001497828315968C911597838316968C9106
:100800001697848317968C911797858318968C91E9
:100810001897868319968C91199787831A968C91CD
:100820001A9780871B968C911B9781871C968C91B9
:100830001C9782871D968C911D9783871E968D919C
:100840009C911F97EC0109900020E9F72197C81BA4
:10085000D90B8E0120E030E0048715872687378783
:100860001E966D917C911F97AE01CF0140960E941C
:10087000481BCE014096DF91CF911F910F910895B3
:10088000DF92EF92FF920F931F93CF93DF93EC01D0
:100890007B0102969DDF2A89F701E80FF91F20836B
:1008A000118212828C010C5F1F4F1382D12C8A8916
:1008B000D816A8F4898D9A8D26E0D29E800D911DC0
:1008C0001124DC01ED91FC91B701600F711F0190C3
:1008D000F081E02D1995080F191FD394E8CFC801B6
:1008E000DF91CF911F910F91FF90EF90DF900895CE
:1008F000CF92DF92EF92FF920F931F93CF93DF93EC
:100900007C016B01DC0112968C911297FB018083B4
:100910001396ED91FC911497EF0109900020E9F7EF
:100920002197CE1BDF0B8E0120E030E0DB0111961A
:100930000D931D932D933C931497F701638174815C
:10094000AE01C60105960E94481BD70115968C91F1
:10095000F601EC0FFD1F8583CE010696DF91CF9146
:100960001F910F91FF90EF90DF90CF900895AF927D
:10097000BF92CF92DF92EF92FF920F931F93CF938C
:10098000DF93EC017B018A81DB018C938B811196D3
:100990008C93EC81FD81DF010D900020E9F7CD0102
:1009A00001976C01CE1ADF0AC601A0E0B0E0FB019E
:1009B00082839383A483B5836C817D81A601C70163
:1009C00006960E94481BEE81FF81DF010D900020FA
:1009D000E9F7CD0101975C01AE1ABF0AF701EC0DF2
:1009E000FD1D850120E030E00683178320873187D5
:1009F0009AE0C90ED11C6E817F81A501C7018C0DC3
:100A00009D1D0E94481BCA0CDB1CE885F985DF018F
:100A10000D900020E9F7CD0101975C01AE1ABF0AE5
:100A2000F701EC0DFD1D850120E030E0008311830E
:100A30002283338394E0C90ED11C68857985A50192
:100A4000C7018C0D9D1D0E94481BAC0CBD1C3A8536
:100A50002B859C858D85F701EA0DFB1D3083218355
:100A600092838383C5010496DF91CF911F910F91EB
:100A7000FF90EF90DF90CF90BF90AF9008950F93CD
:100A80001F93CF93DF93DC01FB0112968C91129799
:100A9000808313968D919C911497EC01099000200E
:100AA000E9F72197C81BD90B8E0120E030E00183C4
:100AB00012832383348313966D917C911497AE0136
:100AC000CF0105960E94481BCE010596DF91CF917C
:100AD0001F910F910895BF92CF92DF92EF92FF92F4
:100AE0000F931F93CF93DF93EC017B018A81DB018E
:100AF0008C9311961C92119712961C921297139632
:100B00001C92FB01379640E024E030E05A81C90195
:100B100004964517E0F4AF81B88524E0429FA00D0C
:100B2000B11D11246C9111965C91119712963C9114
:100B3000129713962C91DF0113976C9311965C9387
:100B400011963C9320839C014F5F3496DFCF4985FB
:100B5000F701E20FF31F408311821282138220E01B
:100B60003985F701E80FF91F04962317B0F4AE8515
:100B7000BF8534E0239FA00DB11D11246C91119607
:100B80005C91119712964C91129713963C91608349
:100B90005183428333832F5FE3CF288920831182DF
:100BA00012821382B12C2889B21698F54B2D50E091
:100BB000440F551FEB89FC89E40FF51F0190F0816C
:100BC000E02DDF010D900020E9F79D012150310952
:100BD0006901CE1ADF0AF701E80FF91F860120E04C
:100BE00030E000831183228333838C010C5F1F4F1D
:100BF000EB89FC89E40FF51F60817181A601C701B3
:100C0000800F911F0E94481BC601800F911FB39453
:100C1000CACFDF91CF911F910F91FF90EF90DF909E
:100C2000CF90BF900895AF92BF92CF92DF92EF9294
:100C3000FF920F931F93CF93DF93EC017B010296FA
:100C40000FDB8C01F701E80FF91FD0808A898D1521
:100C500050F486E0D89EB0011124898D9A8D0E94AF
:100C6000601A9A8F898F0C5F1F4FDA8AB12C6E0140
:100C700083E1C80ED11C76E0A72E8A89B816B0F49D
:100C8000B701600F711FC6017EDB080F191FA98D08
:100C9000BA8D86E0B89EA00DB11D1124F6018A2DF3
:100CA00001900D928A95E1F7B394E7CFC801DF91E7
:100CB000CF911F910F91FF90EF90DF90CF90BF9059
:100CC000AF9008954F925F927F928F929F92AF92D2
:100CD000BF92CF92DF92EF92FF920F931F93CF9329
:100CE000DF93EC018B01DB01FC908A818F1550F4BE
:100CF000B4E0FB9EB00111248F8198850E94601A98
:100D000098878F83FA82F8013796F12C44E050E0FF
:100D10009E012D5F3F4F8A81BA016C5F7F4F6B014F
:100D2000F81660F5408150E060E070E0742F6627AF
:100D300055274427DF0113978C91482B11968C91EE
:100D4000582B11968C91682B4B835C836D837E832B
:100D5000A6016F81788584E0F89E600D711D1124D5
:100D6000D9018D909D90AD90BC90DB018D929D92AC
:100D7000AD92BC921397F3943496CDCFF801E40F63
:100D8000F51FF08089858F1550F484E0F89EB0013E
:100D900011248E859F850E94601A9F878E879601F9
:100DA000F98680E0FE013A969985D801A20FB31F1B
:100DB000A9014C5F5F4F6A01891748F511969C9114
:100DC000119712964C91129750E060E070E0BA01D2
:100DD00055274427592B9C91492B13969C91792B8D
:100DE0004A875B876C877D879601AE85BF8594E0D7
:100DF000899FA00DB11D11244081518162817381B1
:100E00004D935D936D937C9313978F5FCDCFFC9043
:100E100088898F1550F46F2D70E0660F771F8B89CE
:100E20009C890E94601A9C8B8B8BC601F88A712C5E
:100E30002E0151E1450E511C2889721608F044C05C
:100E4000F801E80FF91FC080D180E280F38004969A
:100E5000F801E80FF91FAC01662757FD6095762F62
:100E60004C0D5D1D6E1D7F1D9F01201B310B490127
:100E7000A12CB12C84169506A606B70638F4B190BD
:100E80009F0122503109D901BC92EECFC80ED91E64
:100E9000F801EC0DFD1D319710829C0121503109A4
:100EA000200F311F3A8B298BC6013B892C89E32FF8
:100EB000F22FE70DF11DE70DF11DD2012D913C91AF
:100EC000318320837394B8CFDF91CF911F910F911D
:100ED000FF90EF90DF90CF90BF90AF909F908F905A
:100EE0007F905F904F90089529EB34E0FC013183AF
:100EF000208303960C942A1022E435E0FC01318310
:100F00002083F2CFCF93DF93EC01EEDFCE01DF91B0
:100F1000CF910C94CD10CF93DF93EC01EDDFCE0198
:100F2000DF91CF910C94CD10AF92BF92CF92DF9210
:100F3000EF92FF920F931F93CF93DF9300D01F92F6
:100F40001F92CDB7DEB78C016B01643671053CF0A2
:100F5000FC01EE57FB4F8081882309F479C0DA0148
:100F6000ED91FC910190F081E02DB801655E7D4F1F
:100F7000CA0119957C015801BCEEAB1ABDEFBB0A42
:100F80002FEFF50120832EEF319620833196808359
:100F900031969083890F8095319680833196C082F7
:100FA0003196D08285E090E020E030E0A701495FF3
:100FB0005F4F8417950750F4F801E80FF91FEC5EB6
:100FC000FD4F6081260F311D0196F3CFF8E0EF0E43
:100FD000F11C400F511FFA01EC5EFD4F209520835C
:100FE00021E0E21622E0F206C8F46501C6018A1982
:100FF0009B098E159F0584F4D80112968D919C91C2
:101000001397F60161916F01DC01ED91FC91019064
:10101000F081E02D1995EACFC7011CC081EA94E068
:101020009A83898383E08B8384EA93E09D838C8316
:10103000D801ED91FC910190F081E02DAE014F5F60
:101040005F4F67E070E0C80119958FEF9FEF02C016
:1010500080E090E00F900F900F900F900F90DF9135
:10106000CF911F910F91FF90EF90DF90CF90BF90A5
:10107000AF900895FC018DE794E09183808385E62D
:1010800094E09383828314821582168217821086DD
:1010900011861286138614861586168617868CEDA1
:1010A00093E0918B808B128A21E734E0348B238B81
:1010B000158A978B868B108E128E118E0895CF9382
:1010C000DF93AB01EC01AE81BF81ED91FC911197F3
:1010D0006C817D810190F081E02DCD01DF91CF9178
:1010E0001994CF92DF92EF92FF920F931F930E9479
:1010F000191100915C0A10915D0A20915E0A3091ED
:101100005F0A6B017C01C01AD10AE20AF30A41E0CE
:1011100059E8C51653E1D506E104F10410F440E0A6
:1011200008C060935C0A70935D0A80935E0A909396
:101130005F0A842F1F910F91FF90EF90DF90CF9067
:101140000895FC0181ED94E09183808380E69AE02C
:101150009383828340E051EE60E070E044835583E6
:1011600066837783DF01AE57BB4F1C921E968DEAD4
:1011700094E011969C938E9312961C921297189657
:101180001C921E92179719961C9219971F961C92E3
:101190001E921E9750961C92509754961C921E9227
:1011A000539780E090E0DF01A80FB91FAC5EBB4F02
:1011B0001D921C92029682339105A9F780E090E07F
:1011C000DF01A80FB91FAA5BBB4F1D921C920296AC
:1011D00082339105A9F780E090E0DF01A80FB91FE5
:1011E00054961C920196811522E09207B1F780E097
:1011F00090E0DF01A80FB91FAC5EBD4F1C920196B5
:10120000811522E09207A9F70895AC0120E030E0B3
:10121000FA01EC5EFB4F0190F081E02DEF2B91F491
:10122000F901E65FFD4FEE0FFF1FE80FF91F718315
:10123000608323583F4FFB01358324839783868344
:1012400081E008952F5F3F4F4E5F5F4F2931310599
:10125000F9F680E0089526E040E051EE60E070E0AD
:1012600080E69AE0C3D5409197055091980560912A
:10127000990570919A0526E08091950590919605C3
:10128000B5D510920C0A10920B0A10920E0A109209
:101290000D0A1092120A1092110A1092100A10925E
:1012A0000F0A6EE675E083E995E0AFDF84E49AE02B
:1012B0000E940F1264E675E083E995E0A6DF6AE517
:1012C00075E083E995E0A1CF0F931F93CF93DF9350
:1012D000CDB7DEB72A970FB6F894DEBF0FBECDBFED
:1012E0008C0189E894E09A8389831B821C821D8289
:1012F0001E821F82188619861A86D801ED91FC91EC
:101300000190F081E02DAE014F5F5F4F6AE070E029
:10131000C80119958ED7F8016087718782879387F6
:101320002A960FB6F894DEBF0FBECDBFDF91CF91E6
:101330001F910F9108954F925F926F927F928F92BB
:101340009F92AF92BF92CF92DF92EF92FF920F9354
:101350001F93CF93DF93CDB7DEB72E970FB6F894D8
:10136000DEBF0FBECDBF8C0185E994E09A838983EF
:101370001C821B828CED93E09E838D8398878F83E4
:101380009A8789871B861C861D861E86580182E3E4
:10139000A80EB11C7801412C92E0592E612C712CC1
:1013A0006701ACEECA1AABEFDA0AD601ED91FC91F7
:1013B0003097B9F1848195819C838B838081918161
:1013C0009E838D8382819381DC01ED91FC91048069
:1013D000F581E02D199598878F83D601ED91FC91C9
:1013E00082819381DC01ED91FC910680F781E02DF3
:1013F00019959A8789874B865C866D867E86F8016B
:1014000080819181F601A081B18118966D917C91C6
:101410001997DC01ED91FC91AE014F5F5F4FC80160
:101420001995B2E0EB0EF11CEA14FB0409F0B8CFF9
:101430007801412C82E0582E612C712C6701EAEB77
:10144000CE1AEBEFDE0AF601A081B1811097E1F12F
:1014500012968D919C9113979C838B8314968D91FA
:101460009C9115979E838D83ED91FC91119704803B
:10147000F581E02DCD01199598878F83D6018D9147
:101480009C91DC01ED91FC910680F781E02D19958E
:101490009A8789874B865C866D867E86D801ED911A
:1014A000FC9180809180F60180819181DC01ED9139
:1014B000FC910280F381E02D1995AE014F5F5F4FE3
:1014C000BC01C801F4011995F2E0EF0EF11CEA1419
:1014D000FB0409F0B3CFF801EE57FB4F81E08083A6
:1014E0002E960FB6F894DEBF0FBECDBFDF91CF9121
:1014F0001F910F91FF90EF90DF90CF90BF90AF9032
:101500009F908F907F906F905F904F9008958F92F3
:101510009F92AF92BF92CF92DF92EF92FF920F9382
:101520001F93CF93DF93CDB7DEB72A970FB6F8940A
:10153000DEBF0FBECDBF8C015B0189E894E09A83CA
:1015400089831B821C821D821E821F821886198637
:101550001A866FD66B017C01F80180859185A28582
:10156000B385C81AD90AEA0AFB0AB501CE01019669
:101570000E94390228EE822E23E0922EA12CB12C5B
:10158000C701B601A50194010E94221769017A01E1
:101590009B01AC018B819C81AD81BE818C0D9D1D19
:1015A000AE1DBF1D8B839C83AD83BE8360E472E45C
:1015B0008FE090E00E940017CF80D884E984FA84FD
:1015C000C60ED71EE81EF91ECF82D886E986FA8697
:1015D00030D6CB80DC80ED80FE80F1E0CF1AD108E0
:1015E000E108F108A50194010E94221749015A015E
:1015F0009B01AC01C818D908EA08FB08F801C486A9
:10160000D586E686F786CF80D884E984FA84F6E327
:10161000DF1AF5E6EF0AF4ECFF0A60E472E48FE00B
:1016200090E00E940017C61AD70AE80AF90AF801E2
:10163000C08AD18AE28AF38AB801605F7F4FC8010D
:101640000C96C0D6F6D5F801E957FB4F608371833D
:10165000828393832A960FB6F894DEBF0FBECDBF68
:10166000DF91CF911F910F91FF90EF90DF90CF907E
:10167000BF90AF909F908F9008952F923F924F927E
:101680005F926F927F928F929F92AF92BF92CF9212
:10169000DF92EF92FF920F931F93CF93DF93CDB71B
:1016A000DEB760970FB6F894DEBF0FBECDBF4C011A
:1016B000C0D56B017C01940129573B4F3E832D839C
:1016C000F90180819181A281B381A7019601281B34
:1016D000390B4A0B5B0BDA01C901893F9A42A1051C
:1016E000B10510F035971082A40148585B4F588B14
:1016F0004F87DA018D919C91892B79F0F401E557A0
:10170000FB4F80819181A281B3818C159D05AE052F
:10171000BF0518F4FA01118210823401F0E86F1A43
:10172000FBEF7F0A940124583B4F3A832983A4019D
:101730004E575B4F58874F832C5E3F4F3C872B871C
:10174000435F5F4F5E874D87840106581B4F16012C
:10175000270154E1250E311C411C511C540184E128
:10176000A80EB11C940122583B4F3C832B83A4014B
:1017700045575B4F5A874987D40112968D919C91AA
:101780001397DC01ED91FC910680F781E02D19950E
:101790009C0197FD27C1F30180819181820F931FE6
:1017A00091838083AF85B8894D915C914730510515
:1017B000E1F4EB81FC8180819181AC014F5F5F4F4F
:1017C00051834083F401E80FF91F248BD8018D91D8
:1017D0009C91119701978D939C93892B09F0BECF13
:1017E00028E030E0EF85F88985C04115510511F5F5
:1017F0002F3F310569F481E090E0AF85B8898D9382
:101800009C93E985FA852082318242825382B4CF4B
:1018100010D56C197D098E099F0966307105810507
:10182000910508F49BCFF401EE57FB4F10828EEF29
:101830009FEFFDC04130510591F42E3F310519F461
:1018400082E090E02EC0EF85F88911821082AF818E
:10185000B8858C91811182CFC40136DD8DCF4230A5
:10186000510589F4F80131832083AB81BC811D923D
:101870001C9283E090E0EF85F88991838083D30107
:101880002D933C9379CF4330510581F4322F222799
:10189000F80180819181820F931F9183808384E07E
:1018A00090E0AF85B8898D939C9366CF4430510505
:1018B00099F460E071E00E940F178F3F910539F4B1
:1018C00085E090E0EF85F8899183808355CFAF85DF
:1018D000B8891D921C9250CF4530510571F4E981B1
:1018E000FA813183208386E090E0AF85B8898D93BB
:1018F0009C93F301318320833FCF46305105D1F4CF
:10190000322F2227A981BA818D919C911197820F44
:10191000931F8D939C9327E030E0EF85F889318306
:101920002083D8018D919C91892B09F017CF28E055
:1019300030E0E0CF4830510509F010CFAF85B889CD
:101940001D921C9260E071E00E940F178F3F91057D
:1019500009F004CFA981BA81ED91FC913097A1F4EF
:10196000C401B2DCC401E7DCF401ED57FB4FC082D7
:10197000D182E282F382ED81FE81C082D182E28255
:10198000F3828FEF9FEF53C0EA30F10521F4B501E8
:10199000C401BDDDF1CEE630F10549F4B5018B851A
:1019A0009C8590D981E0AD85BE858C93E5CEEB30EA
:1019B000F10521F4EF81F8851082DECEE154FE4F6F
:1019C000EE0FFF1FE80DF91D80819181009709F44A
:1019D000C5CEDC01ED91FC910190F081E02DB501C7
:1019E0001995CACEF401EE57FB4F80818823E9F0A8
:1019F00084010D571B4FF80180819181A281B38131
:101A0000A7019601281B390B4A0B5B0BDA01C901B0
:101A1000853C9940A105B10540F0C40155DCD801D1
:101A2000CD92DD92ED92FC92139780E090E060966B
:101A30000FB6F894DEBF0FBECDBFDF91CF911F91DF
:101A40000F91FF90EF90DF90CF90BF90AF909F905D
:101A50008F907F906F905F904F903F902F90089560
:101A6000CF93DF9300D000D0CDB7DEB783E995E008
:101A700004DE84E49AE0ECD583E995E0FEDD6EE3D4
:101A80007AE084E49AE0F7D4882329F06EE37AE0E0
:101A900084E695E014DB68E37AE084E49AE0DCD441
:101AA000882329F068E37AE08AE595E008DB19DB12
:101AB0008823E1F081E794E09A83898381E0809331
:101AC0008A0520914D0A8091460A8B838DED93E023
:101AD0009D838C832E83CE010196909392058093F3
:101AE000910568E775E08EE695E0E9DA26960FB68F
:101AF000F894DEBF0FBECDBFDF91CF9108950F9355
:101B00001F93CF93DF93C4E4DAE089EB94E09983E9
:101B100088836CED73E087E49AE007D382E495E074
:101B2000998388830EE31AE085EC94E0F8019183B1
:101B300080831092400A1092410A1092420A109239
:101B4000430AC8E3DAE09983888310923A0A109234
:101B50003B0A10923C0A10923D0A83E995E0F1DAC3
:101B600088E795E087DA86EE93E090936F0580939F
:101B70006E0588E795E0909371058093700510924B
:101B80007705109276058CEF93E09093650580932E
:101B90006405109367050093660510926D05109219
:101BA0006C058FE194E090935B0580935A05D09388
:101BB0005D05C0935C051092630510926205DF918C
:101BC000CF911F910F91089584E49AE095C9FC018B
:101BD000818D228D90E0805C9F4F821B91098F73D5
:101BE00099270895FC01918D828D981731F0828D8F
:101BF000E80FF11D858D90E008958FEF9FEF089518
:101C0000FC01918D828D981761F0828DDF01A80F04
:101C1000B11D5D968C91928D9F5F9F73928F90E026
:101C200008958FEF9FEF089586EB9FE0892B39F0A1
:101C300080E090E0892B19F099D1811125C080E0D6
:101C400090E0892B41F080E090E0892B21F00E9408
:101C5000000081111CC080E090E0892B41F080E001
:101C600090E0892B21F00E940000811113C080E0D8
:101C700090E0892BA1F080E090E0892B81F00E9418
:101C8000000081110AC008950E940000D8CF0E9470
:101C90000000E1CF0E940000EACF0C9400000895FC
:101CA000FC01848DDF01A80FB11DA35ABF4F2C91F9
:101CB000848D90E001968F739927848FA689B789C8
:101CC0002C93A089B1898C9180648C93938D848DA1
:101CD000981306C00288F389E02D80818F7D808370
:101CE0000895CF93DF93EC01888D8823C1F0EA89B2
:101CF000FB89808185FD05C0A889B9898C9186FD05
:101D00000EC00FB607FCF5CF808185FFF2CFA88902
:101D1000B9898C9185FFEDCFCE01C2DFE8CFDF918D
:101D2000CF910895CF92DF92FF920F931F93CF939D
:101D3000DF931F92CDB7DEB76C0181E0D6015896D4
:101D40008C9358975B969C915B975C968C915C9773
:101D5000981307C05096ED91FC915197808185FDB5
:101D60002DC0F601038D10E00F5F1F4F0F73112779
:101D7000F02EF601848DF81210C00FB607FCF9CFD3
:101D8000D6015096ED91FC915197808185FFF1CF5E
:101D9000C601698385DF6981ECCF838DE80FF11D72
:101DA000E35AFF4F6083D6015B960C935B97529684
:101DB000ED91FC915397808180620CC0D6015696BC
:101DC000ED91FC91579760835096ED91FC9151975E
:101DD00080818064808381E090E00F90DF91CF91DB
:101DE0001F910F91FF90DF90CF900895BF92CF92F7
:101DF000DF92EF92FF92CF93DF93EC016A017B01B8
:101E0000B22EE889F98982E08083411581EE580776
:101E100061057105A1F060E079E08DE390E0A70134
:101E200096010E9422172150310941095109569506
:101E3000479537952795211580E1380790F0E88977
:101E4000F989108260E874E88EE190E0A7019601BC
:101E5000F9D72150310941095109569547953795D0
:101E60002795EC85FD853083EE85FF852083188ED0
:101E7000EC89FD89B082EA89FB8980818061808359
:101E8000EA89FB89808188608083EA89FB89808177
:101E900080688083EA89FB8980818F7D8083DF91E0
:101EA000CF91FF90EF90DF90CF90BF9008951F9259
:101EB0000F920FB60F9211240BB60F922F938F93A0
:101EC0009F93EF93FF93E091700AF091710A8081E4
:101ED000E091760AF091770A82FD12C0908180919C
:101EE000790A8F5F8F7320917A0A821751F0E091FF
:101EF000790AF0E0E05AF54F958F8093790A01C096
:101F00008081FF91EF919F918F912F910F900BBE48
:101F10000F900FBE0F901F9018951F920F920FB643
:101F20000F9211240BB60F922F933F934F935F9311
:101F30006F937F938F939F93AF93BF93EF93FF9391
:101F400080E69AE0ADDEFF91EF91BF91AF919F9156
:101F50008F917F916F915F914F913F912F910F9052
:101F60000BBE0F900FBE0F901F90189580E69AE061
:101F70002EDE21E0892B09F420E0822F08951092B3
:101F8000630A1092620A88EE93E0A0E0B0E08093CA
:101F9000640A9093650AA093660AB093670A8BED72
:101FA00094E09093610A8093600A85EC90E09093AE
:101FB0006D0A80936C0A84EC90E090936F0A809392
:101FC0006E0A80EC90E09093710A8093700A81EC25
:101FD00090E09093730A8093720A82EC90E0909361
:101FE000750A8093740A86EC90E09093770A809348
:101FF000760A1092790A10927A0A10927B0A10924D
:102000007C0A0895CF92DF92EF92FF920F931F9375
:10201000CF93DF937C016A01EB0100E010E00C1527
:102020001D0571F06991D701ED91FC910190F0814E
:10203000E02DC7011995892B19F00F5F1F4FEFCFC6
:10204000C801DF91CF911F910F91FF90EF90DF902A
:10205000CF900895FC01808191810C94D119CF9388
:10206000DF93EC0188819981009711F00E94D119CA
:10207000198218821D821C821B821A82DF91CF91E5
:1020800008950F931F93CF93DF93EC018B016F5F44
:102090007F4F888199810E94601A009731F099835F
:1020A00088831B830A8381E001C080E0DF91CF91A8
:1020B0001F910F910895CF93DF93EC01888199814F
:1020C000892B29F08A819B818617970758F4CE01C6
:1020D000D8DF882341F08C819D81892B19F4E88118
:1020E000F981108281E0DF91CF910895EF92FF9204
:1020F0000F931F93CF93DF93EC017B018A01BA0109
:10210000DADF811103C0CE01AADF07C01D830C8373
:10211000B701888199810E94511BCE01DF91CF9137
:102120001F910F91FF90EF900895FC011182108292
:1021300013821282158214826115710551F0FB0120
:1021400001900020E9F7AF0141505109461B570BA0
:10215000CDCF0895CF93DF93EC016115710559F050
:10216000FB0101900020E9F7AF0141505109461BE6
:10217000570BBCDF01C073DFCE01DF91CF91089513
:102180000E94441B0895BBD0FDDF65D8C4E1DEE0AA
:1021900067DC2097E9F348DDFBCF0C94D1191F923F
:1021A0000F920FB60F9211242F933F938F939F930B
:1021B000AF93BF938091FE0A9091FF0AA091000B0C
:1021C000B091010B3091FD0A23E0230F2D3720F44D
:1021D0000196A11DB11D05C026E8230F0296A11D81
:1021E000B11D2093FD0A8093FE0A9093FF0AA093ED
:1021F000000BB093010B8091020B9091030BA09107
:10220000040BB091050B0196A11DB11D8093020B2B
:102210009093030BA093040BB093050BBF91AF9168
:102220009F918F913F912F910F900FBE0F901F9014
:1022300018952FB7F8946091FE0A7091FF0A80916B
:10224000000B9091010B2FBF08953FB7F894809138
:10225000020B9091030BA091040BB091050B26B5D6
:10226000A89B05C02F3F19F00196A11DB11D3FBFCE
:102270006627782F892F9A2F620F711D811D911D5E
:1022800042E0660F771F881F991F4A95D1F708957E
:102290008F929F92AF92BF92CF92DF92EF92FF9276
:1022A0006B017C01D2DF4B015C01C114D104E1045C
:1022B000F104E1F086D0C9DF681979098A099B0920
:1022C000683E73408105910580F321E0C21AD10870
:1022D000E108F10888EE880E83E0981EA11CB11C6D
:1022E000C114D104E104F10431F7DFCFFF90EF9086
:1022F000DF90CF90BF90AF909F908F90089578948B
:1023000084B5826084BD84B5816084BD85B58260FA
:1023100085BD85B5816085BDEEE6F0E08081816098
:102320008083E1E8F0E01082808182608083808198
:1023300081608083E0E8F0E0808181608083E1EB70
:10234000F0E0808184608083E0EBF0E08081816058
:102350008083E1E9F0E08081826080838081816018
:102360008083E0E9F0E0808181608083E1EAF0E051
:10237000808182608083808181608083E0EAF0E0F8
:10238000808181608083E1E2F1E0808182608083EE
:10239000808181608083E0E2F1E0808181608083E0
:1023A000EAE7F0E0808184608083808182608083BE
:1023B0008081816080838081806880831092C100E9
:1023C00008950895CF92DF92EF92FF920F931F939B
:1023D000CF93DF938C01EB01688179818A819B81A6
:1023E00020E03AEC4AE95BE32DD5F801C080D180CA
:1023F000E280F380C20ED31EE41EF51EC082D1829D
:10240000E282F382688379838A839B83DF91CF9111
:102410001F910F91FF90EF90DF90CF900895CF9391
:10242000DF93EC0186E09BE0C7D11A8219866CED40
:1024300073E0CE0103968EDE1A8A1B8A1C8A1D8ADF
:102440001E8A1F8ADF91CF910895DC01ED91FC91E6
:102450000190F081E02D1994FC01DB014285538548
:102460006485758512964D935D936D937C93159756
:102470008289128A0895FC01DB01468557856089AF
:10248000718912964D935D936D937C931597838913
:10249000138A0895BF92CF92DF92EF92FF920F932B
:1024A0001F93CF93DF93CDB7DEB728970FB6F8947D
:1024B000DEBF0FBECDBF8C016CE570E086E09BE017
:1024C0008ED162E070E080E090E0E2DE86E09BE0AA
:1024D000F8D16CE570E086E09BE081D163E070E0CC
:1024E00086E09BE0B2DF60E070E086E09BE0ADDF7D
:1024F00064E070E086E09BE0A8DF86E09BE0E1D14D
:102500006AE070E080E090E0C3DE48E050E06CE517
:1025100070E086E09BE0D3D1CE0101967C016E0194
:1025200099E0C90ED11C86E09BE0B9D0F7018193F8
:102530007F01EC15FD05B9F7F801128211867801CB
:10254000F3E0EF0EF11C6CED73E0C70103DE89814F
:10255000833041F082E0F801828381E0818767EE79
:1025600074E009C08A81843049F082E0F8018283F6
:10257000818765E175E0C701EDDD53C06B8170E0D7
:1025800080E090E085D520E030E040E853E40ED6CE
:102590006B017C016C8170E080E090E07BD59B0159
:1025A000AC01C701B601A8D420E030E040E251E41C
:1025B00007D5F80166877787808B918BBD806B2D5F
:1025C0006F7770E080E090E065D520E030E040E893
:1025D00053E4ECD56B017C016E8170E080E090E00B
:1025E00059D59B01AC01C701B60186D420E030E08B
:1025F00040E251E4E5D42B2D30E0220F232F221F9F
:10260000330B232B31F4F801628773878487958716
:1026100008C0DC01CB01B058F80182879387A487FA
:10262000B587F8018281811103C081E0828B838BA1
:1026300028960FB6F894DEBF0FBECDBFDF91CF91C5
:102640001F910F91FF90EF90DF90CF90BF90089572
:102650000F931F93CF93DF93EC01EBDD0C891D8962
:102660002E893F89601B710B820B930B613D774074
:102670008105910538F0CE010DDFDBDD6C8B7D8BA4
:102680008E8B9F8BDF91CF911F910F910895809139
:10269000360B90E02091370B821B91090895209111
:1026A000370B8091360B281750F4E22FF0E0E85CEE
:1026B000F44F808190E02F5F2093370B08958FEFC8
:1026C0009FEF0895E091370B8091360BE81730F4B7
:1026D000F0E0E85CF44F808190E008958FEF9FEF89
:1026E00008950895CF92DF92EF92FF920F931F9378
:1026F000CF93DF937C01CB018A012091120B22231F
:1027000089F0EB016B01C40ED51ECC15DD0561F01F
:102710006991D701ED91FC910190F081E02DC70105
:102720001995F3CF642F8DD1C801DF91CF911F91FF
:102730000F91FF90EF90DF90CF900895CF93DF93AC
:102740001F92CDB7DEB769832091120B2223D1F0FF
:102750002091130B203240F021E030E0FC01338364
:10276000228380E090E014C08091140BE82FF0E009
:10277000EB5EF44F998190838F5F8093140B80936D
:10278000130B04C061E0CE0101965BD181E090E0C3
:102790000F90DF91CF910895FC011382128248EED1
:1027A00053E060E070E044835583668377838EE472
:1027B00095E09183808308951092370B1092360B29
:1027C0001092140B1092130B81C081E08093120BB6
:1027D0006093350B1092140B1092130B0895F5CFE4
:1027E0000F93062F21E04091130B65E17BE0809170
:1027F000350BD0D01092140B1092130B1092120BB9
:102800000F9108958F929F92AF92BF92CF92DF92D5
:10281000EF92FF920F931F93CF93DF93EC01F62E6D
:10282000D42E48015901EE2009F1CFDF1E2D1430BE
:1028300008F013E01150B8F0E881F98128E0129F08
:10284000B0011124A501940104C056954795379510
:1028500027956A95D2F7CA01B9010190F081E02D60
:10286000CE011995E7CF60E0CE01BADF4D2D4132A0
:1028700008F040E22C2D68E37BE08F2D43D01092CE
:10288000370B8093360BDF91CF911F910F91FF9003
:10289000EF90DF90CF90BF90AF909F908F90089572
:1028A000CF92EF920F931F93C22EE12C00E010E025
:1028B0009801A8DF1F910F91EF90CF90089521E02C
:1028C000EFCF61E08DCF86E09BE066CF1092C50B25
:1028D00081E08093C30B1092C20B61E084E15BD274
:1028E00061E085E158D2E9EBF0E080818E7F808362
:1028F00080818D7F808388E48093B80085E4809315
:10290000BC000895413208F043C09091C50B91116D
:10291000FCCF91E09093C50B2093C30B2FEF209336
:10292000580B10929D0B240F20939C0B9093C40B7B
:102930009091C40B880F892B8093C40B8091C20B9C
:10294000813061F41092C20B8091C40B8093BB0064
:102950008091BC0083FDF8CF85EC01C085EE8093AB
:10296000BC008091C50B8130E1F380919D0B8417F1
:1029700010F440919D0B2EE93BE0FB01D9018A2F19
:10298000821B841718F48D918193F9CF842F0895B9
:1029900080E008950F93413208F04AC09091C50B32
:1029A0009111FCCF92E09093C50B0093C30B9FEF66
:1029B0009093580B10929D0B40939C0BFB016EE97A
:1029C0007BE0DB019A2F961B941718F491919D934D
:1029D000F9CF1092C40B9091C40B880F892B809370
:1029E000C40B8091C20B813061F41092C20B8091B4
:1029F000C40B8093BB008091BC0083FDF8CF85ECB5
:102A000001C085EE8093BC00222321F08091C50B8C
:102A10008230E1F38091580B8F3F61F08091580B29
:102A2000803251F08091580B803341F483E007C02D
:102A300081E005C080E003C082E001C084E00F9126
:102A40000895613298F42091C50B243089F4609385
:102A50007A0BFC018CE79BE0DC012A2F281B261750
:102A600018F421912D93F9CF80E0089581E0089525
:102A700082E0089585ED8093BC008091BC0084FDC8
:102A8000FCCF1092C50B089585EC8093BC0010928A
:102A9000C50B08951F920F920FB60F9211240BB61B
:102AA0000F922F933F934F935F936F937F938F93E7
:102AB0009F93AF93BF93EF93FF938091B900887F6B
:102AC000803609F49DC070F5883209F45CC090F43A
:102AD000803109F455C038F4882309F4F3C08830F4
:102AE00009F44EC0F2C0883109F44DC0803209F4B7
:102AF0005EC0EBC0803409F469C050F4803309F43F
:102B000056C0883309F0E1C08093580BBDDFDDC0AB
:102B1000803509F44FC0883509F45DC0883409F068
:102B2000D4C0D2C0883909F4C3C0A8F4883709F4E6
:102B300067C038F4883609F463C0803709F460C090
:102B4000C4C0883809F4B4C0803909F45FC0803843
:102B500009F0BBC05BC0803B09F482C038F4803A06
:102B600009F466C0883A09F47BC0AFC0803C09F420
:102B7000A3C0883C09F4A0C0883B09F486C0A5C066
:102B80008091C40B10C090919D0B80919C0B981765
:102B900070F5E0919D0B81E08E0F80939D0BF0E02E
:102BA000E256F44F80818093BB0085EC82C0809315
:102BB000580B8AC0E0919D0B81E08E0F80939D0B96
:102BC0008091BB00F0E0E256F44F808390919D0B22
:102BD00080919C0B6AC0E0919D0B81E08E0F8093E9
:102BE0009D0B8091BB00F0E0E256F44F8083809112
:102BF000C30B811169C081E08093C20B84EA5DC080
:102C000083E08093C50B1092590BCFCF8091590B65
:102C1000803208F04DC0E091590B81E08E0F809317
:102C2000590B8091BB00F0E0E65AF44F8083BDCF92
:102C30002BDF8091590B803230F4E091590BF0E09A
:102C4000E65AF44F10826091590B70E0E091BE0B90
:102C5000F091BF0B8AE59BE019951092590B35C096
:102C600084E08093C50B10927B0B10927A0BE0915D
:102C7000C00BF091C10B199580917A0B811105C0A1
:102C800081E080937A0B10927C0BE0917B0B81E0CA
:102C90008E0F80937B0BF0E0E458F44F808180939B
:102CA000BB0090917B0B80917A0B981708F47DCF35
:102CB00085E88093BC0009C085EC8093BC0010922D
:102CC000C50B03C01092580BD5DEFF91EF91BF9159
:102CD000AF919F918F917F916F915F914F913F91B4
:102CE0002F910F900BBE0F900FBE0F901F90189555
:102CF00090E0FC013197E231F10508F04BC0EE584D
:102D0000FF4FC2C0809180008F7703C08091800008
:102D10008F7D80938000089580918000877FF9CF18
:102D200084B58F7702C084B58F7D84BD089580916E
:102D3000B0008F7703C08091B0008F7D8093B0008A
:102D40000895809190008F7707C0809190008F7DCB
:102D500003C080919000877F8093900008958091B8
:102D6000A0008F7707C08091A0008F7D03C0809165
:102D7000A000877F8093A0000895809120018F7725
:102D800007C0809120018F7D03C080912001877F43
:102D90008093200108950F931F93CF93DF931F9289
:102DA000CDB7DEB7282F30E0F901E85FFE4F849100
:102DB000F901E25BFE4F1491F901EC56FE4F0491CC
:102DC0000023C1F0882319F0698392DF6981E02F25
:102DD000F0E0EE0FFF1FE652FE4FA591B4919FB7B2
:102DE000F8948C91611103C01095812301C0812B4F
:102DF0008C939FBF0F90DF91CF911F910F910895FA
:102E0000DB018F939F9346D0BF91AF91A29F800D1E
:102E1000911DA39F900DB29F900D1124089597FBD3
:102E2000072E16F4009406D077FD08D041D007FC99
:102E300005D03EF4909581959F4F089570956195CA
:102E40007F4F0895A1E21A2EAA1BBB1BFD010DC0E6
:102E5000AA1FBB1FEE1FFF1FA217B307E407F5074A
:102E600020F0A21BB30BE40BF50B661F771F881F26
:102E7000991F1A9469F760957095809590959B01BC
:102E8000AC01BD01CF010895EE0FFF1F0590F49135
:102E9000E02D199421D0A59F900DB49F900DA49F73
:102EA000800D911D112408950790F691E02D19943D
:102EB000AA1BBB1B51E107C0AA1FBB1FA617B70760
:102EC00010F0A61BB70B881F991F5A95A9F780957C
:102ED0009095BC01CD010895A29FB001B39FC001A0
:102EE000A39F700D811D1124911DB29F700D811D36
:102EF0001124911D08955058BB27AA270ED01CC13C
:102F00000DD130F012D120F031F49F3F11F41EF4B6
:102F100002C10EF4E095E7FBF8C0E92F1ED180F363
:102F2000BA17620773078407950718F071F49EF5C6
:102F300036C10EF4E0950B2EBA2FA02D0B01B9016E
:102F400090010C01CA01A0011124FF27591B99F01F
:102F5000593F50F4503E68F11A16F040A22F232F2B
:102F6000342F4427585FF3CF469537952795A7957B
:102F7000F0405395C9F77EF41F16BA0B620B730B22
:102F8000840BBAF09150A1F0FF0FBB1F661F771F93
:102F9000881FC2F70EC0BA0F621F731F841F48F448
:102FA000879577956795B795F7959E3F08F0B3CFCE
:102FB0009395880F08F09927EE0F979587950895B8
:102FC0000CD0BAC0B2D040F0A9D030F021F45F3FAD
:102FD00019F09BC05111E4C09EC0BFD098F3992353
:102FE000C9F35523B1F3951B550BBB27AA276217CD
:102FF0007307840738F09F5F5F4F220F331F441F12
:10300000AA1FA9F333D00E2E3AF0E0E830D0915049
:103010005040E695001CCAF729D0FE2F27D0660F36
:10302000771F881FBB1F261737074807AB07B0E875
:1030300009F0BB0B802DBF01FF2793585F4F2AF08B
:103040009E3F510568F061C0ABC05F3FECF3983E16
:10305000DCF3869577956795B795F7959F5FC9F7E8
:10306000880F911D9695879597F90895E1E0660F71
:10307000771F881FBB1F621773078407BA0720F0EA
:10308000621B730B840BBA0BEE1F88F7E095089553
:10309000E89409C097FB3EF49095809570956195F2
:1030A0007F4F8F4F9F4F9923A9F0F92F96E9BB27A8
:1030B0009395F695879577956795B795F111F8CF24
:1030C000FAF4BB0F11F460FF1BC06F5F7F4F8F4F8F
:1030D0009F4F16C0882311F096E911C0772321F085
:1030E0009EE8872F762F05C0662371F096E8862F1D
:1030F00070E060E02AF09A95660F771F881FDAF774
:10310000880F9695879597F9089597F99F6780E8B6
:1031100070E060E008959FEF80EC089500240A9429
:103120001616170618060906089500240A941216A2
:103130001306140605060895092E0394000C11F4D5
:10314000882352F0BB0F40F4BF2B11F460FF04C082
:103150006F5F7F4F8F4F9F4F089557FD9058440FDB
:10316000551F59F05F3F71F04795880F97FB991FE6
:1031700061F09F3F79F087950895121613061406A3
:10318000551FF2CF4695F1DF08C016161706180630
:10319000991FF1CF86957105610508940895E8940B
:1031A000BB2766277727CB0197F908950BD0C4CFAB
:1031B000B5DF28F0BADF18F0952309F0A6CFABCF22
:1031C0001124EECFCADFA0F3959FD1F3950F50E005
:1031D000551F629FF001729FBB27F00DB11D639FC9
:1031E000AA27F00DB11DAA1F649F6627B00DA11D6F
:1031F000661F829F2227B00DA11D621F739FB00D15
:10320000A11D621F839FA00D611D221F749F332784
:10321000A00D611D231F849F600D211D822F762F1D
:103220006A2F11249F5750408AF0E1F088234AF01A
:10323000EE0FFF1FBB1F661F771F881F9150504066
:10324000A9F79E3F510570F060CFAACF5F3FECF326
:10325000983EDCF3869577956795B795F795E79552
:103260009F5FC1F7FE2B880F911D9695879597F963
:103270000895CF93DF938230910510F482E090E0BF
:10328000E091C80BF091C90B20E030E0A0E0B0E085
:10329000309739F14081518148175907B8F04817E4
:1032A000590771F482819381109729F013969C93AA
:1032B0008E9312972CC09093C90B8093C80B27C094
:1032C0002115310531F04217530718F0A901DB0130
:1032D00001C0EF019A01BD01DF010280F381E02D01
:1032E000D7CF21153105F9F0281B390B24303105D2
:1032F00080F48A819B816115710521F0FB01938324
:10330000828304C09093C90B8093C80BFE01329650
:1033100044C0FE01E20FF31F8193919322503109C3
:10332000398328833AC02091C60B3091C70B232BD9
:1033300041F420910202309103023093C70B209395
:10334000C60B20910002309101022115310541F494
:103350002DB73EB74091040250910502241B350B56
:10336000E091C60BF091C70BE217F307A0F42E1BF8
:103370003F0B2817390778F0AC014E5F5F4F2417D9
:10338000350748F04E0F5F1F5093C70B4093C60B95
:103390008193919302C0E0E0F0E0CF01DF91CF9103
:1033A0000895CF93DF93009709F487C0FC0132970B
:1033B00013821282C091C80BD091C90B209781F45F
:1033C00020813181280F391F8091C60B9091C70B46
:1033D0008217930779F5F093C70BE093C60B6DC086
:1033E000DE0120E030E0AE17BF0750F412964D9199
:1033F0005C9113979D014115510509F1DA01F3CF55
:10340000B383A28340815181840F951F8A179B0744
:1034100071F48D919C911197840F951F0296918361
:10342000808312968D919C911397938382832115AB
:10343000310529F4F093C90BE093C80B3EC0D901C4
:103440001396FC93EE9312974D915D91A40FB51FC7
:10345000EA17FB0779F480819181840F951F02960A
:10346000D90111969C938E938281938113969C939C
:103470008E931297E0E0F0E08A819B81009719F02B
:10348000FE01EC01F9CFCE01029628813981820F2D
:10349000931F2091C60B3091C70B2817390769F489
:1034A000309729F41092C90B1092C80B02C01382F6
:1034B0001282D093C70BC093C60BDF91CF910895B2
:1034C0006F927F928F929F92AF92BF92CF92DF9234
:1034D000EF92FF920F931F93CF93DF93EC01CB01F9
:1034E000209779F4DF91CF911F910F91FF90EF908A
:1034F000DF90CF90BF90AF909F908F907F906F9014
:10350000B8CEFE01E60FF71F9E0122503109E217E7
:10351000F30708F4A8C0D9010D911C911197061763
:103520001707B0F00530110508F49BC0A8014450FE
:1035300051094617570708F494C002501109061B99
:10354000170B019311936D937C93CF012ADF89C0F0
:103550005B01A01AB10A4E01800E911EA091C80B0A
:10356000B091C90B612C712C60E070E0109709F4E8
:1035700049C0A815B905C9F5ED90FC9011976701F0
:1035800042E0C40ED11CCA14DB0478F147018A184A
:103590009B08640142E0C40ED11C1296BC901297A5
:1035A0001396AC91B5E0CB16D10440F0B282A38360
:1035B00091828082D9018D939C9309C00E5F1F4F29
:1035C0000E0D1F1DF90111830083EB2DFA2F6115DC
:1035D000710531F0DB011396FC93EE93129741C015
:1035E000F093C90BE093C80B3CC06D917C9111978F
:1035F0006616770608F43B01BD0112960D90BC914A
:10360000A02DB4CF6091C60B7091C70B68157905DA
:10361000E9F468167906D0F4409100025091010255
:103620004115510541F44DB75EB7609104027091A8
:103630000502461B570BE417F507A8F4F093C70BD8
:10364000E093C60BF901918380830BC012DE7C01ED
:10365000009749F0A801BE011BD0CE01A2DEC70130
:1036600004C0CE0102C080E090E0DF91CF911F91B5
:103670000F91FF90EF90DF90CF90BF90AF909F9011
:103680008F907F906F90089581E090E0F89410C043
:10369000FB01DC0102C001900D9241505040D8F76F
:1036A0000895FB01DC0101900D920020E1F70895DF
:1036B00011E0CAEFD1E000E005C022970109FE0148
:1036C0000BBFF2DBCC3FD10780E00807B1F7F894DD
:0236D000FFCF2A
:1036D2000000CA0B20007374645F6D7367732F4818
:1036E20065616465720032313736646563616563B2
:1036F20062636537386162633362393665663034D6
:10370200396661626564006F70656E61675F6272DF
:1037120061696E2F446961676E6F73746963537474
:10372200617475730035313438333631396132653D
:103732003039306239326263326564333132333662
:103742003164663938006F70656E61675F627261FD
:10375200696E2F446961676E6F7374696341727237
:1037620061790066386564333363663130393834E1
:103772003332396131636631306637376239383016
:10378200363339007374645F6D7367732F54696DD8
:1037920065006364373136366337346335353263F7
:1037A2003331316662636332666535613762633233
:1037B200383900726F7373657269616C5F6D73671C
:1037C200732F546F706963496E666F0030616435A0
:1037D20031663838666334343839326638633130AA
:1037E20036383430373736343630303500726F730E
:1037F20073657269616C5F6D7367732F4C6F6700DD
:1038020031316162643733316332353933333236C1
:103812003163643631383362643132643632393579
:103822000039663065393862646136353938313984
:1038320038366464663533616661376134306534C5
:1038420039007374645F6D7367732F466C6F6174B4
:103852003332003733666362663436623439313963
:10386200316536373239303865353038343261387F
:10387200336434004D6573736167652066726F6DE2
:10388200206465766963652064726F707065643A5E
:10389200206D657373616765206C61726765722064
:1038A2007468616E206275666665722E00616D32A3
:1038B2003331355F31002F696E7465726E616C5FF2
:1038C200646961676E6F7374696373002F73656EE9
:1038D200736F72732F616D323331355F312F6169CE
:1038E200725F68756D69646974792F726177002FF0
:1038F20073656E736F72732F616D323331355F3161
:103902002F6169725F74656D70657261747572653D
:103912002F72617700726F7373657269616C5F6D8C
:103922007367732F52657175657374506172616D3F
:103932000000000000E8033001BD01C001000000EA
:10394200007804C3010B020E0200000000400413C1
:10395200061102140200000000170239027F0282DF
:103962000200000000B70485025D0360030000004E
:10397200003F056303A703AA03000000006B056272
:1039820006AD03B0030000000074078207C010C038
:103992001000000000B303C703DD03E003000000D2
:1039A2000094073D0BE30300000000920E0210E7B3
:1039B2000D000EF20D710E53656E736F72207265FB
:1039C20073706F6E646564207769746820746865CB
:1039D2002077726F6E672066756E6374696F6E20F2
:1039E200636F64650053656E736F7220646964204F
:1039F2006E6F742072657475726E20656E6F756776
:103A02006820696E666F726D6174696F6E00000086
:103A120000007C078B070F122813000000009E1382
:0A3A2200721347134F136213711360
:00000001FF
